:200000000C9466000C948E000C948E000C948E000C948E000C948E000C948E000C948E0098
:200020000C948E000C948E000C948E000C948E000C948E000C948E000C948E000C948E0050
:200040000C94AC060C948E000C941C080C9463080C948E000C948E000C948E000C948E0099
:200060000C948E000C948E0000000000240027002A0000000000250028002B000000000037
:20008000230026002900040404040404040402020202020203030303030301020408102071
:2000A0004080010204081020010204081020000000070002010000030406000000000000EB
:2000C00000009E0292049C06C909970211241FBECFEFD8E0DEBFCDBF11E0A0E0B1E0EAE25E
:2000E000F9E102C005900D92A83DB107D9F712E0A8EDB1E001C01D92AF3AB107E1F710E0D2
:20010000CAECD0E004C02297FE010E944D0CC23CD107C9F70E94190A0C94880C0C940000D3
:20012000CF93DF93BC018230910510F462E070E0A091AD02B091AE02ED01E0E0F0E040E0E1
:2001400050E021C0888199818617970769F48A819B81309719F09383828304C09093AE022A
:200160008093AD02FE0134C06817790738F44115510519F08417950708F4AC01FE018A8100
:200180009B819C01E9012097E9F641155105A9F1CA01861B970B049708F4BA01E0E0F0E0F0
:2001A0002AC08D919C91119784179507F9F46417750781F412968D919C911397309719F065
:2001C0009383828304C09093AE028093AD02FD0132964CC0CA01861B970BFD01E80FF91FBE
:2001E0006193719302978D939C9340C0FD01828193819C01D9011097A1F68091AB02909176
:20020000AC02892B41F48091B5019091B6019093AC028093AB024091B7015091B80141159E
:20022000510541F44DB75EB78091B3019091B401481B590B2091AB023091AC02CA01821B83
:20024000930B8617970780F0AB014E5F5F4F8417950750F0420F531F5093AC024093AB0203
:20026000F9016193719302C0E0E0F0E0CF01DF91CF910895CF93DF93009709F450C0EC0198
:2002800022971B821A82A091AD02B091AE02109709F140E050E0AC17BD0708F1BB83AA83BF
:2002A000FE0121913191E20FF31FAE17BF0779F48D919C911197280F391F2E5F3F4F398377
:2002C000288312968D919C9113979B838A834115510571F4D093AE02C093AD0220C01296FD
:2002E0008D919C911397AD01009711F0DC01D3CFFA01D383C28321913191E20FF31FCE1752
:20030000DF0769F488819981280F391F2E5F3F4FFA01318320838A819B8193838283DF91C9
:20032000CF910895A0E0B0E0E8E9F1E00C94530C6C01009729F4CB010E9490006C01C1C002
:200340008EEF882E8FEF982E8C0C9D1C8601060F171F0815190508F4B2C0F401A081B18112
:20036000A617B707B8F0A530B10508F4AAC0CD0104978617970708F4A4C01297A61BB70B39
:20038000F801A193B193D4016D937C93CF010E943A0197C07B01EA1AFB0AEEEFFFEFEE0EB8
:2003A000FF1E36016A0E7B1EC091AD02D091AE0244245524AA24BB244AC0C615D705E1F5A2
:2003C000488159814E155F05B8F1CA0104978E159F05B0F41296A40FB51FF401B183A0833E
:2003E0002A813B814114510431F0D20113963C932E93129766C03093AE022093AD0261C0FA
:200400008A819B81F80193838283425050404E195F09518340834114510431F0D2011396D2
:200420001C930E93129704C01093AE020093AD02F4017183608345C088819981A816B906F9
:2004400008F45C012E018A819B819C01E901209709F0B3CF8091AB029091AC028615970570
:20046000E9F4A616B706D0F42091B7013091B8012115310541F42DB73EB78091B30190911F
:20048000B401281B390B02171307C8F41093AC020093AB02D4016D937C9313C0CB010E947B
:2004A0009000EC01009759F0F40140815181B6010E946702C6010E943A016E0102C0CC24D0
:2004C000DD24C601CDB7DEB7E0E10C946F0CFB01DC0102C001900D9241505040D8F7089507
:2004E000FB01DC018D91019080190110D9F3990B0895FB01DC0101900D920020E1F708951F
:200500008130910551F46F5F7F4F81F48BED91E060E071E00E94810B0895892B39F46F5F4A
:200520007F4F21F48BED91E00E941D0C089580E090E06FEF7FEF0E948002089581E090E059
:200540006FEF7FEF0E9480020895FF920F931F93DF93CF93CDB7DEB76C970FB6F894DEBF4B
:200560000FBECDBF8091BB0161E00E94C70782EF91E00E94E505882309F0EAC082EF91E006
:200580000E945405882309F4E3C08CE892E061E071E00E948E0A82EF91E062EE71E00E943E
:2005A0009A051092DA011092D9018E010F5F1F4F27C0EE51FE4F8CE892E060810E94520A00
:2005C000C8016BED71E00E94120CE091D901F091DA01EE51FE4FC80160810E944F0BBC0153
:2005E0008BED91E00E94FB0BC8010E94230C8091D9019091DA0101969093DA018093D90167
:20060000E091D901F091DA01E031F10594F28CE892E064E171E00E94910A8E01085F1F4F89
:20062000C8016BED71E040E050E024E030E00E94B40BC80166E171E00E94A40AF82EC801E3
:200640000E941D0CFF2009F461C08CE892E06BE171E00E94910A8E01015F1F4FC8016BED54
:2006600071E044E050E026E030E00E94B40BC8016AE371E00E94A40AF82EC8010E941D0CED
:20068000FF2009F443C08CE892E06DE371E00E94910A8E010A5E1F4FC8016BED71E046E07A
:2006A00050E028E030E00E94B40BC8016AE371E00E94A40AF82EC8010E941D0CFF2099F078
:2006C0008CE892E06EE471E00E94910A8091B90161E00E94C70781E08093D8018CE892E0A5
:2006E00060E671E011C08CE892E06AE671E00E94910A8091B90160E00E94C7071092D801D8
:200700008CE892E06EE771E00E94910A8BED91E060E071E00E949B0B82EF91E069E871E0CA
:200720000E94F10482EF91E062EE71E00E94160619C08091B90161E00E94C70781E0809318
:20074000D8018CE892E06FE871E00E94910A0AC060ED77E080E090E00E94F4068091D80131
:20076000882339F36C960FB6F894DEBF0FBECDBFCF91DF911F910F91FF900895EF92FF92FB
:200780000F931F93DF93CF93CDB7DEB7EDB6FEB68091B90161E00E9488078091BB0161E076
:2007A0000E94880707EF11E089EF91E09093F8018093F70105501040C8010E947406C801BE
:2007C0006FE971E00E945E0680E18093F6018DB79EB740970FB6F8949EBF0FBE8DBFC801FF
:2007E0000E94F9050CE812E0C80140E855E260E070E00E949E08C80165EA71E00E94910ACD
:200800000FB6F894FEBE0FBEEDBECF91DF911F910F91FF90EF9008959CB5937F982B9CBD09
:2008200008952CB5382F33702C7F322B3CBD2DB590E0959587959595879581702E7F822B06
:200840008DBD08958DE061E00E9488078BE061E00E9488078AE061E00E9488078DE060E06C
:200860000E94C7078BE060E00E94C7078AE061E00E94C7078CB580618CBD8CB580648CBDF9
:200880000895BF92CF92DF92EF92FF920F931F93CF93DF936C017A01B22E8B01C0E0D0E0BA
:2008A00013C0F601A581B681ED91FC9111970190F081E02DCD01D8016D918D010995F70186
:2008C000EC0FFD1F80832196CB1558F3DF91CF911F910F91FF90EF90DF90CF90BF90089534
:2008E000EF92FF920F931F93CF93DF937C01042FEB0110E00EC0D7011596ED91FC91169729
:20090000A081B1812D913C91CF016991F90109951F5F101780F3DF91CF911F910F91FF90D0
:20092000EF90089588E08093F30187E08093F40181E08093F50180E18093F6011092F8014D
:200940001092F7010895FC01828160E00E94C7070895FC01828161E00E94C70708950F9323
:200960001F938C010E94A304F801A581B681ED91FC9111970190F081E02DCD0162EE09951B
:20098000C8010E94A9041F910F910895CF92DF92EF92FF920F931F938C01F62E6A01E22EEE
:2009A0000E94A304F801A581B681ED91FC9111978FE1F82280E2F82A0190F081E02DCD01FA
:2009C0006F2D0995C801B6014E2D0E947004C8010E94A9041F910F91FF90EF90DF90CF9088
:2009E0000895EF92FF920F931F938C017B016AE0A70125E00E94C604C80160E1A70125E0D1
:200A00000E94C6041F910F91FF90EF900895CF92DF92EF92FF920F931F938C01F62E6A011B
:200A2000E22E0E94A304F801A581B681ED91FC9111978FE1F8220190F081E02DCD016F2D51
:200A40000995C801B601A6012E2D0E944104C8010E94A9041F910F91FF90EF90DF90CF904B
:200A60000895DF93CF930F92CDB7DEB767E0AE014F5F5F4F21E00E94070589810F90CF9141
:200A8000DF910895DF93CF930F92CDB7DEB767E1AE014F5F5F4F21E00E94070589818170BE
:200AA0000F90CF91DF910895CF93DF93EC010E94310586FF02C091E005C0CE010E9442055C
:200AC00091E09827892FDF91CF910895EF92FF920F931F937C01162F042F0E94A304F70125
:200AE000A581B681ED91FC9111971F7110620190F081E02DCD01612F0995F701A581B68184
:200B0000ED91FC9111970190F081E02DCD01602F0995C7010E94A9041F910F91FF90EF90A3
:200B20000895FC0181E08083CF0160E04AE00E9466050895EF92FF920F931F938C017B0164
:200B40000E94A304F801A581B681ED91FC9111970190F081E02DCD0161E60995C801B70100
:200B6000A701F80124810E944104C8010E94A904C80167E040E40E9466051F910F91FF9010
:200B8000EF900895FC01818160E00E94C7070895FC01818161E00E94C70708950F931F934C
:200BA0008C01FC0110820E94C205C80160E04BE00E946605C8010E94C805C80167E040E304
:200BC0000E9466051F910F910895CF93DF93EC018881882359F0CE010E943105807311F4BE
:200BE00081E004C0CE010E94CE0580E0DF91CF9108950F931F938C0165E0F80143810E943A
:200C00006605C80161E1F80144810E946605C80162E1F80144810E946605C8010E94CE057E
:200C2000C8010E94AF041F910F9108950F931F93CF93DF93EC018B010E94310507C0CE019A
:200C40000E943105807311F0188203C088818823B1F7CE010E94C205CE010E949105CE0101
:200C60000E94A304AD81BE81ED91FC9111970190F081E02DCD0161EE0995CE010E94A90423
:200C8000CE010E94A304AD81BE81ED91FC9111970190F081E02DCD0160EA0995CE01B801CF
:200CA0004C810E947004CE010E94A904CE010E94C805DF91CF911F910F910895EF92FF9226
:200CC0000F931F938C017B010E94C205C8016BE0A70125E00E94C604C8010E94C8051F9139
:200CE0000F91FF90EF9008950F931F938C01FC01818161E00E948807F801828161E00E9478
:200D00008807C8010E94C205C8010E94A904F801A581B681ED91FC9111970280F381E02DEE
:200D2000CD0109951F910F9108956EBD0DB407FEFDCF8EB50895089581EC91E09093FA0124
:200D40008093F90108950E94220480E00E940C0481E00E94110408951F920F920FB60F92A2
:200D600011242F933F938F939F93AF93BF938091FF0190910002A0910102B0910202309154
:200D800003020196A11DB11D232F2D5F2D3720F02D570196A11DB11D209303028093FF0167
:200DA00090930002A0930102B09302028091FB019091FC01A091FD01B091FE010196A11DA2
:200DC000B11D8093FB019093FC01A093FD01B093FE01BF91AF919F918F913F912F910F9094
:200DE0000FBE0F901F9018959B01AC017FB7F8948091FB019091FC01A091FD01B091FE0186
:200E000066B5A89B05C06F3F19F00196A11DB11D7FBFBA2FA92F982F8827860F911DA11D5F
:200E2000B11D62E0880F991FAA1FBB1F6A95D1F7BC012DC0FFB7F8948091FB019091FC01D2
:200E4000A091FD01B091FE01E6B5A89B05C0EF3F19F00196A11DB11DFFBFBA2FA92F982FE0
:200E600088278E0F911DA11DB11DE2E0880F991FAA1FBB1FEA95D1F7861B970B885E9340F5
:200E8000C8F2215030404040504068517C4F211531054105510571F60895789484B58260F0
:200EA00084BD84B5816084BD85B5826085BD85B5816085BDEEE6F0E0808181608083E1E889
:200EC000F0E01082808182608083808181608083E0E8F0E0808181608083E1EBF0E08081CB
:200EE00084608083E0EBF0E0808181608083EAE7F0E080818460808380818260808380811B
:200F0000816080838081806880831092C1000895CF93DF93482F50E0CA0186569F4FFC01F4
:200F200034914A575F4FFA018491882369F190E0880F991FFC01E859FF4FA591B491FC01C5
:200F4000EE58FF4FC591D491662351F42FB7F8948C91932F909589238C93888189230BC0B3
:200F6000623061F42FB7F8948C91932F909589238C938881832B88832FBF06C09FB7F894F1
:200F80008C91832B8C939FBFDF91CF910895482F50E0CA0182559F4FFC012491CA0186560C
:200FA0009F4FFC0194914A575F4FFA013491332309F440C0222351F1233071F0243028F414
:200FC0002130A1F0223011F514C02630B1F02730C1F02430D9F404C0809180008F7703C0C5
:200FE000809180008F7D8093800010C084B58F7702C084B58F7D84BD09C08091B0008F77DA
:2010000003C08091B0008F7D8093B000E32FF0E0EE0FFF1FEE58FF4FA591B4912FB7F894FF
:20102000662321F48C919095892302C08C91892B8C932FBF089508951F920F920FB60F9292
:2010400011242F933F934F938F939F93EF93FF934091C60020914402309145022F5F3F4FCB
:201060002F73307080914602909147022817390759F0E0914402F0914502EC5FFD4F4083CA
:201080003093450220934402FF91EF919F918F914F913F912F910F900FBE0F901F90189516
:2010A000E0919802F0919902E05CFF4F8191919120813181821B930B8F739070892B11F006
:2010C0000E941B0808951F920F920FB60F9211242F933F938F939F93EF93FF93209188028A
:2010E0003091890280918A0290918B022817390731F48091C1008F7D8093C10014C0E091BE
:201100008A02F0918B02E85BFD4F208180918A0290918B0201968F73907090938B0280935E
:201120008A022093C600FF91EF919F918F913F912F910F900FBE0F901F901895AF92BF92C1
:20114000DF92EF92FF920F931F93CF93DF93EC017A018B01DD24403081EE580780E06807E2
:2011600080E0780711F0DD24D39491E0A92EB12CEC89FD89DD2069F0C5010E8C02C0880FF8
:20118000991F0A94E2F7808360E079E08DE390E005C0108260E874E88EE190E0A801970189
:2011A0000E94290C2150304040405040569547953795279580E12030380720F0DD2011F01A
:2011C000DD24D6CFE889F9893083EA89FB892083EE89FF89408121E030E0C9010A8C02C036
:2011E000880F991F0A94E2F7482B4083EE89FF894081C9010B8C02C0880F991F0A94E2F74A
:20120000482B4083EE89FF894081C9010C8C02C0880F991F0A94E2F7482B4083EE89FF89B9
:2012200080810D8C02C0220F331F0A94E2F7209528232083DF91CF911F910F91FF90EF9087
:20124000DF90BF90AF900895DC011C96ED91FC911D97E05CFF4F2191319180819181281B52
:20126000390B2F733070C9010895DC011C96ED91FC911D97E05CFF4F20813181E054F040F2
:20128000DF01AE5BBF4F8D919C9111972817390719F42FEF3FEF07C08D919C91E80FF91F6B
:2012A0008081282F30E0C9010895DC011C96ED91FC911D97E05CFF4F20813181E054F040D0
:2012C000DF01AE5BBF4F8D919C9111972817390719F42FEF3FEF10C08D919C911197E80F92
:2012E000F91F20818D919C91119701968F73907011969C938E9330E0C9010895FC01868533
:201300009785DC01A05CBF4FFC01EE5BFF4F2D913C9111978081918128173907C1F708951C
:20132000CF93DF93EC01EE85FF85E05CFF4F20813181E054F0402F5F3F4F2F733070DF0176
:20134000AE5BBF4F8D919C91119728173907D1F3E05CFF4F80819181E054F040E80FF91F30
:201360006083EE85FF85E05CFF4F31832083EE89FF89208181E090E00D8C02C0880F991F97
:201380000A94E2F7282B208381E090E0DF91CF91089510928F0210928E0288EE93E0A0E0D4
:2013A000B0E08093900290939102A0939202B09393028BEC91E090938D0280938C0284E004
:2013C00092E0909399028093980288E492E090939B0280939A0285EC90E090939D0280932D
:2013E0009C0284EC90E090939F0280939E0280EC90E09093A1028093A00281EC90E09093A1
:20140000A3028093A20286EC90E09093A5028093A40284E08093A60283E08093A70287E066
:201420008093A80285E08093A90281E08093AA020895CF93DF930E944D070E94BE03C0E53D
:20144000D8E00E94A5022097E1F30E945008F9CFCF92DF92EF92FF920F931F93CF93DF9332
:201460007C016B018A01C0E0D0E00FC0D6016D916D01D701ED91FC910190F081E02DC701DC
:201480000995C80FD91F015010400115110571F7CE01DF91CF911F910F91FF90EF90DF903E
:2014A000CF900895DC01ED91FC910190F081E02D09950895EF92FF920F931F938C01DC012E
:2014C000ED91FC910190F081E02D6DE009957C01D801ED91FC910190F081E02DC8016AE084
:2014E00009959C012E0D3F1DC9011F910F91FF90EF900895CF93DF93DB010D900020E9F708
:201500001197A61BB70BEC01E881F9810280F381E02DAD010995DF91CF9108950E947A0AEE
:201520000895EF92FF920F931F937C010E947A0A8C01C7010E945A0A080F191FC8011F91E2
:201540000F91FF90EF900895DC01FB0114968D919C911597892B31F461157105A9F090E0F8
:20156000808108C00D90BC91A02D6115710529F490E08C91882349F407C0CD010E947002C4
:201580009C0190E0232B09F491E0892F08950F931F93CF93DF93EC018B016F5F7F4F8881E7
:2015A00099810E949201009711F480E005C0998388831B830A8381E0DF91CF911F910F9148
:2015C0000895CF93DF93EC0188819981892B29F08A819B818617970760F4CE010E94C70AC5
:2015E000882341F08C819D81892B19F4E881F981108281E0DF91CF910895EF92FF920F932C
:201600001F93CF93DF93EC017B016C817D81E114F104C1F04115510599F08A01060F171F4A
:20162000B8010E94E10A882369F0888199812C813D81820F931FB7010E9479021D830C838B
:2016400081E001C080E0DF91CF911F910F91FF90EF900895DF93CF9300D0CDB7DEB7698394
:201660001A82BE016F5F7F4F41E050E00E94FD0A0F900F90CF91DF910895CF93DF93EC010D
:2016800088819981009711F00E943A01198218821D821C821B821A82DF91CF9108950F93F8
:2016A0001F93182F092F0E942A0B882321F4812F902F0E943D0B812F902F1F910F910895AD
:2016C000EF92FF920F931F93CF93DF93EC017B018A01BA010E94E10A882321F4CE010E9463
:2016E0003D0B07C01D830C8388819981B7010E947902CE01DF91CF911F910F91FF90EF90B7
:201700000895CF93DF93EC01198218821B821A821D821C821E826115710551F0DB010D907A
:201720000020E9F71197A61BB70BAD010E94600BDF91CF9108950F931F93182F092F61150D
:20174000710559F0DB010D900020E9F71197A61BB70BAD010E94600B02C00E943D0B812F0F
:20176000902F1F910F910895BF92CF92DF92EF92FF920F931F93CF93DF93082FB92E6B01D6
:201780007A01E9012417350710F4EA017901802F9B2D62EB71E00E94810BD60114968D9122
:2017A0009C9115978E159F05D0F08C179D0708F4EC01D601ED91FC911197EC0FFD1F1081E7
:2017C00010826D917C916E0D7F1D802F9B2D0E949B0BD601ED91FC91EC0FFD1F1083802F5B
:2017E0009B2DDF91CF911F910F91FF90EF90DF90CF90BF900895CF93DF93EC01FB018617DF
:20180000970761F0608171816115710529F0448155810E94600B02C00E943D0BCE01DF916E
:20182000CF910895FC0111821082138212821582148216820E94FB0B0895FC018081918146
:201840000E943A010895FC01808191810E943A010895A1E21A2EAA1BBB1BFD010DC0AA1F8A
:20186000BB1FEE1FFF1FA217B307E407F50720F0A21BB30BE40BF50B661F771F881F991F15
:201880001A9469F760957095809590959B01AC01BD01CF010895EE0FFF1F0590F491E02D50
:2018A00009942F923F924F925F926F927F928F929F92AF92BF92CF92DF92EF92FF920F93AB
:2018C0001F93CF93DF93CDB7DEB7CA1BDB0B0FB6F894DEBF0FBECDBF09942A883988488877
:2018E0005F846E847D848C849B84AA84B984C884DF80EE80FD800C811B81AA81B981CE0F77
:20190000D11D0FB6F894DEBF0FBECDBFED01089510E0CAECD0E004C0FE010E944D0C22963B
:20192000CC3CD107C9F7F894FFCF005265636569766564207061636B6574202D2000200061
:2019400030303031004461746120726563656976656420666F722061646472657373203028
:201960003030310030310046756E6374696F6E203D2052656C617900416374696F6E203DFA
:201980002041637469766174650052656C6179204F4E2100416374696F6E203D2044656136
:2019A000637469766174650052656C6179204F46462100636C696531004E4F50202D2052A4
:2019C000656C6179204F4E21007365727631004C697374656E696E672E2E2E00002000AF87
:2019E00002000006000300000000009506A3069B06000000009009280A2409550935097EE5
:021A00000900DB
:00000001FF
